{
  "contractName": "Collection",
  "abi": [
    {
      "inputs": [
        {
          "internalType": "string",
          "name": "_tokenName",
          "type": "string"
        },
        {
          "internalType": "string",
          "name": "_tokenSymbol",
          "type": "string"
        },
        {
          "internalType": "uint256",
          "name": "_cost",
          "type": "uint256"
        },
        {
          "internalType": "uint256",
          "name": "_maxSupply",
          "type": "uint256"
        },
        {
          "internalType": "uint256",
          "name": "_maxMintAmountPerTx",
          "type": "uint256"
        },
        {
          "internalType": "string",
          "name": "_hiddenMetadataUri",
          "type": "string"
        },
        {
          "internalType": "address",
          "name": "_mintpadFeeAddress",
          "type": "address"
        },
        {
          "internalType": "address",
          "name": "_creator",
          "type": "address"
        }
      ],
      "stateMutability": "nonpayable",
      "type": "constructor"
    },
    {
      "inputs": [],
      "name": "ApprovalCallerNotOwnerNorApproved",
      "type": "error"
    },
    {
      "inputs": [],
      "name": "ApprovalQueryForNonexistentToken",
      "type": "error"
    },
    {
      "inputs": [],
      "name": "BalanceQueryForZeroAddress",
      "type": "error"
    },
    {
      "inputs": [],
      "name": "InvalidQueryRange",
      "type": "error"
    },
    {
      "inputs": [],
      "name": "MintERC2309QuantityExceedsLimit",
      "type": "error"
    },
    {
      "inputs": [],
      "name": "MintToZeroAddress",
      "type": "error"
    },
    {
      "inputs": [],
      "name": "MintZeroQuantity",
      "type": "error"
    },
    {
      "inputs": [],
      "name": "OwnerQueryForNonexistentToken",
      "type": "error"
    },
    {
      "inputs": [],
      "name": "OwnershipNotInitializedForExtraData",
      "type": "error"
    },
    {
      "inputs": [],
      "name": "TransferCallerNotOwnerNorApproved",
      "type": "error"
    },
    {
      "inputs": [],
      "name": "TransferFromIncorrectOwner",
      "type": "error"
    },
    {
      "inputs": [],
      "name": "TransferToNonERC721ReceiverImplementer",
      "type": "error"
    },
    {
      "inputs": [],
      "name": "TransferToZeroAddress",
      "type": "error"
    },
    {
      "inputs": [],
      "name": "URIQueryForNonexistentToken",
      "type": "error"
    },
    {
      "anonymous": false,
      "inputs": [
        {
          "indexed": true,
          "internalType": "address",
          "name": "owner",
          "type": "address"
        },
        {
          "indexed": true,
          "internalType": "address",
          "name": "approved",
          "type": "address"
        },
        {
          "indexed": true,
          "internalType": "uint256",
          "name": "tokenId",
          "type": "uint256"
        }
      ],
      "name": "Approval",
      "type": "event"
    },
    {
      "anonymous": false,
      "inputs": [
        {
          "indexed": true,
          "internalType": "address",
          "name": "owner",
          "type": "address"
        },
        {
          "indexed": true,
          "internalType": "address",
          "name": "operator",
          "type": "address"
        },
        {
          "indexed": false,
          "internalType": "bool",
          "name": "approved",
          "type": "bool"
        }
      ],
      "name": "ApprovalForAll",
      "type": "event"
    },
    {
      "anonymous": false,
      "inputs": [
        {
          "indexed": true,
          "internalType": "uint256",
          "name": "fromTokenId",
          "type": "uint256"
        },
        {
          "indexed": false,
          "internalType": "uint256",
          "name": "toTokenId",
          "type": "uint256"
        },
        {
          "indexed": true,
          "internalType": "address",
          "name": "from",
          "type": "address"
        },
        {
          "indexed": true,
          "internalType": "address",
          "name": "to",
          "type": "address"
        }
      ],
      "name": "ConsecutiveTransfer",
      "type": "event"
    },
    {
      "anonymous": false,
      "inputs": [
        {
          "indexed": true,
          "internalType": "address",
          "name": "previousOwner",
          "type": "address"
        },
        {
          "indexed": true,
          "internalType": "address",
          "name": "newOwner",
          "type": "address"
        }
      ],
      "name": "OwnershipTransferred",
      "type": "event"
    },
    {
      "anonymous": false,
      "inputs": [
        {
          "indexed": true,
          "internalType": "address",
          "name": "from",
          "type": "address"
        },
        {
          "indexed": true,
          "internalType": "address",
          "name": "to",
          "type": "address"
        },
        {
          "indexed": true,
          "internalType": "uint256",
          "name": "tokenId",
          "type": "uint256"
        }
      ],
      "name": "Transfer",
      "type": "event"
    },
    {
      "inputs": [
        {
          "internalType": "address",
          "name": "to",
          "type": "address"
        },
        {
          "internalType": "uint256",
          "name": "tokenId",
          "type": "uint256"
        }
      ],
      "name": "approve",
      "outputs": [],
      "stateMutability": "payable",
      "type": "function"
    },
    {
      "inputs": [
        {
          "internalType": "address",
          "name": "owner",
          "type": "address"
        }
      ],
      "name": "balanceOf",
      "outputs": [
        {
          "internalType": "uint256",
          "name": "",
          "type": "uint256"
        }
      ],
      "stateMutability": "view",
      "type": "function"
    },
    {
      "inputs": [],
      "name": "cost",
      "outputs": [
        {
          "internalType": "uint256",
          "name": "",
          "type": "uint256"
        }
      ],
      "stateMutability": "view",
      "type": "function"
    },
    {
      "inputs": [],
      "name": "creator",
      "outputs": [
        {
          "internalType": "address",
          "name": "",
          "type": "address"
        }
      ],
      "stateMutability": "view",
      "type": "function"
    },
    {
      "inputs": [
        {
          "internalType": "uint256",
          "name": "tokenId",
          "type": "uint256"
        }
      ],
      "name": "explicitOwnershipOf",
      "outputs": [
        {
          "components": [
            {
              "internalType": "address",
              "name": "addr",
              "type": "address"
            },
            {
              "internalType": "uint64",
              "name": "startTimestamp",
              "type": "uint64"
            },
            {
              "internalType": "bool",
              "name": "burned",
              "type": "bool"
            },
            {
              "internalType": "uint24",
              "name": "extraData",
              "type": "uint24"
            }
          ],
          "internalType": "struct IERC721A.TokenOwnership",
          "name": "",
          "type": "tuple"
        }
      ],
      "stateMutability": "view",
      "type": "function"
    },
    {
      "inputs": [
        {
          "internalType": "uint256[]",
          "name": "tokenIds",
          "type": "uint256[]"
        }
      ],
      "name": "explicitOwnershipsOf",
      "outputs": [
        {
          "components": [
            {
              "internalType": "address",
              "name": "addr",
              "type": "address"
            },
            {
              "internalType": "uint64",
              "name": "startTimestamp",
              "type": "uint64"
            },
            {
              "internalType": "bool",
              "name": "burned",
              "type": "bool"
            },
            {
              "internalType": "uint24",
              "name": "extraData",
              "type": "uint24"
            }
          ],
          "internalType": "struct IERC721A.TokenOwnership[]",
          "name": "",
          "type": "tuple[]"
        }
      ],
      "stateMutability": "view",
      "type": "function"
    },
    {
      "inputs": [
        {
          "internalType": "uint256",
          "name": "tokenId",
          "type": "uint256"
        }
      ],
      "name": "getApproved",
      "outputs": [
        {
          "internalType": "address",
          "name": "",
          "type": "address"
        }
      ],
      "stateMutability": "view",
      "type": "function"
    },
    {
      "inputs": [],
      "name": "hiddenMetadataUri",
      "outputs": [
        {
          "internalType": "string",
          "name": "",
          "type": "string"
        }
      ],
      "stateMutability": "view",
      "type": "function"
    },
    {
      "inputs": [
        {
          "internalType": "address",
          "name": "owner",
          "type": "address"
        },
        {
          "internalType": "address",
          "name": "operator",
          "type": "address"
        }
      ],
      "name": "isApprovedForAll",
      "outputs": [
        {
          "internalType": "bool",
          "name": "",
          "type": "bool"
        }
      ],
      "stateMutability": "view",
      "type": "function"
    },
    {
      "inputs": [],
      "name": "maxMintAmountPerTx",
      "outputs": [
        {
          "internalType": "uint256",
          "name": "",
          "type": "uint256"
        }
      ],
      "stateMutability": "view",
      "type": "function"
    },
    {
      "inputs": [],
      "name": "maxSupply",
      "outputs": [
        {
          "internalType": "uint256",
          "name": "",
          "type": "uint256"
        }
      ],
      "stateMutability": "view",
      "type": "function"
    },
    {
      "inputs": [],
      "name": "merkleRoot",
      "outputs": [
        {
          "internalType": "bytes32",
          "name": "",
          "type": "bytes32"
        }
      ],
      "stateMutability": "view",
      "type": "function"
    },
    {
      "inputs": [],
      "name": "mintpadFee",
      "outputs": [
        {
          "internalType": "uint256",
          "name": "",
          "type": "uint256"
        }
      ],
      "stateMutability": "view",
      "type": "function"
    },
    {
      "inputs": [],
      "name": "mintpadFeeAddress",
      "outputs": [
        {
          "internalType": "address",
          "name": "",
          "type": "address"
        }
      ],
      "stateMutability": "view",
      "type": "function"
    },
    {
      "inputs": [],
      "name": "name",
      "outputs": [
        {
          "internalType": "string",
          "name": "",
          "type": "string"
        }
      ],
      "stateMutability": "view",
      "type": "function"
    },
    {
      "inputs": [],
      "name": "owner",
      "outputs": [
        {
          "internalType": "address",
          "name": "",
          "type": "address"
        }
      ],
      "stateMutability": "view",
      "type": "function"
    },
    {
      "inputs": [
        {
          "internalType": "uint256",
          "name": "tokenId",
          "type": "uint256"
        }
      ],
      "name": "ownerOf",
      "outputs": [
        {
          "internalType": "address",
          "name": "",
          "type": "address"
        }
      ],
      "stateMutability": "view",
      "type": "function"
    },
    {
      "inputs": [],
      "name": "paused",
      "outputs": [
        {
          "internalType": "bool",
          "name": "",
          "type": "bool"
        }
      ],
      "stateMutability": "view",
      "type": "function"
    },
    {
      "inputs": [],
      "name": "renounceOwnership",
      "outputs": [],
      "stateMutability": "nonpayable",
      "type": "function"
    },
    {
      "inputs": [],
      "name": "revealed",
      "outputs": [
        {
          "internalType": "bool",
          "name": "",
          "type": "bool"
        }
      ],
      "stateMutability": "view",
      "type": "function"
    },
    {
      "inputs": [
        {
          "internalType": "address",
          "name": "from",
          "type": "address"
        },
        {
          "internalType": "address",
          "name": "to",
          "type": "address"
        },
        {
          "internalType": "uint256",
          "name": "tokenId",
          "type": "uint256"
        }
      ],
      "name": "safeTransferFrom",
      "outputs": [],
      "stateMutability": "payable",
      "type": "function"
    },
    {
      "inputs": [
        {
          "internalType": "address",
          "name": "from",
          "type": "address"
        },
        {
          "internalType": "address",
          "name": "to",
          "type": "address"
        },
        {
          "internalType": "uint256",
          "name": "tokenId",
          "type": "uint256"
        },
        {
          "internalType": "bytes",
          "name": "_data",
          "type": "bytes"
        }
      ],
      "name": "safeTransferFrom",
      "outputs": [],
      "stateMutability": "payable",
      "type": "function"
    },
    {
      "inputs": [
        {
          "internalType": "address",
          "name": "operator",
          "type": "address"
        },
        {
          "internalType": "bool",
          "name": "approved",
          "type": "bool"
        }
      ],
      "name": "setApprovalForAll",
      "outputs": [],
      "stateMutability": "nonpayable",
      "type": "function"
    },
    {
      "inputs": [
        {
          "internalType": "bytes4",
          "name": "interfaceId",
          "type": "bytes4"
        }
      ],
      "name": "supportsInterface",
      "outputs": [
        {
          "internalType": "bool",
          "name": "",
          "type": "bool"
        }
      ],
      "stateMutability": "view",
      "type": "function"
    },
    {
      "inputs": [],
      "name": "symbol",
      "outputs": [
        {
          "internalType": "string",
          "name": "",
          "type": "string"
        }
      ],
      "stateMutability": "view",
      "type": "function"
    },
    {
      "inputs": [
        {
          "internalType": "address",
          "name": "owner",
          "type": "address"
        }
      ],
      "name": "tokensOfOwner",
      "outputs": [
        {
          "internalType": "uint256[]",
          "name": "",
          "type": "uint256[]"
        }
      ],
      "stateMutability": "view",
      "type": "function"
    },
    {
      "inputs": [
        {
          "internalType": "address",
          "name": "owner",
          "type": "address"
        },
        {
          "internalType": "uint256",
          "name": "start",
          "type": "uint256"
        },
        {
          "internalType": "uint256",
          "name": "stop",
          "type": "uint256"
        }
      ],
      "name": "tokensOfOwnerIn",
      "outputs": [
        {
          "internalType": "uint256[]",
          "name": "",
          "type": "uint256[]"
        }
      ],
      "stateMutability": "view",
      "type": "function"
    },
    {
      "inputs": [],
      "name": "totalSupply",
      "outputs": [
        {
          "internalType": "uint256",
          "name": "",
          "type": "uint256"
        }
      ],
      "stateMutability": "view",
      "type": "function"
    },
    {
      "inputs": [
        {
          "internalType": "address",
          "name": "from",
          "type": "address"
        },
        {
          "internalType": "address",
          "name": "to",
          "type": "address"
        },
        {
          "internalType": "uint256",
          "name": "tokenId",
          "type": "uint256"
        }
      ],
      "name": "transferFrom",
      "outputs": [],
      "stateMutability": "payable",
      "type": "function"
    },
    {
      "inputs": [
        {
          "internalType": "address",
          "name": "newOwner",
          "type": "address"
        }
      ],
      "name": "transferOwnership",
      "outputs": [],
      "stateMutability": "nonpayable",
      "type": "function"
    },
    {
      "inputs": [],
      "name": "uriPrefix",
      "outputs": [
        {
          "internalType": "string",
          "name": "",
          "type": "string"
        }
      ],
      "stateMutability": "view",
      "type": "function"
    },
    {
      "inputs": [],
      "name": "uriSuffix",
      "outputs": [
        {
          "internalType": "string",
          "name": "",
          "type": "string"
        }
      ],
      "stateMutability": "view",
      "type": "function"
    },
    {
      "inputs": [
        {
          "internalType": "address",
          "name": "",
          "type": "address"
        }
      ],
      "name": "whitelistClaimed",
      "outputs": [
        {
          "internalType": "bool",
          "name": "",
          "type": "bool"
        }
      ],
      "stateMutability": "view",
      "type": "function"
    },
    {
      "inputs": [],
      "name": "whitelistMintEnabled",
      "outputs": [
        {
          "internalType": "bool",
          "name": "",
          "type": "bool"
        }
      ],
      "stateMutability": "view",
      "type": "function"
    },
    {
      "inputs": [
        {
          "internalType": "uint256",
          "name": "_mintAmount",
          "type": "uint256"
        },
        {
          "internalType": "bytes32[]",
          "name": "_merkleProof",
          "type": "bytes32[]"
        }
      ],
      "name": "whitelistMint",
      "outputs": [],
      "stateMutability": "payable",
      "type": "function"
    },
    {
      "inputs": [
        {
          "internalType": "uint256",
          "name": "_mintAmount",
          "type": "uint256"
        }
      ],
      "name": "mint",
      "outputs": [],
      "stateMutability": "payable",
      "type": "function"
    },
    {
      "inputs": [
        {
          "internalType": "uint256",
          "name": "_mintAmount",
          "type": "uint256"
        },
        {
          "internalType": "address",
          "name": "_receiver",
          "type": "address"
        }
      ],
      "name": "mintForAddress",
      "outputs": [],
      "stateMutability": "nonpayable",
      "type": "function"
    },
    {
      "inputs": [
        {
          "internalType": "uint256",
          "name": "_tokenId",
          "type": "uint256"
        }
      ],
      "name": "tokenURI",
      "outputs": [
        {
          "internalType": "string",
          "name": "",
          "type": "string"
        }
      ],
      "stateMutability": "view",
      "type": "function"
    },
    {
      "inputs": [
        {
          "internalType": "bool",
          "name": "_state",
          "type": "bool"
        }
      ],
      "name": "setRevealed",
      "outputs": [],
      "stateMutability": "nonpayable",
      "type": "function"
    },
    {
      "inputs": [
        {
          "internalType": "uint256",
          "name": "_cost",
          "type": "uint256"
        }
      ],
      "name": "setCost",
      "outputs": [],
      "stateMutability": "nonpayable",
      "type": "function"
    },
    {
      "inputs": [
        {
          "internalType": "uint256",
          "name": "_maxMintAmountPerTx",
          "type": "uint256"
        }
      ],
      "name": "setMaxMintAmountPerTx",
      "outputs": [],
      "stateMutability": "nonpayable",
      "type": "function"
    },
    {
      "inputs": [
        {
          "internalType": "string",
          "name": "_hiddenMetadataUri",
          "type": "string"
        }
      ],
      "name": "setHiddenMetadataUri",
      "outputs": [],
      "stateMutability": "nonpayable",
      "type": "function"
    },
    {
      "inputs": [
        {
          "internalType": "string",
          "name": "_uriPrefix",
          "type": "string"
        }
      ],
      "name": "setUriPrefix",
      "outputs": [],
      "stateMutability": "nonpayable",
      "type": "function"
    },
    {
      "inputs": [
        {
          "internalType": "string",
          "name": "_uriSuffix",
          "type": "string"
        }
      ],
      "name": "setUriSuffix",
      "outputs": [],
      "stateMutability": "nonpayable",
      "type": "function"
    },
    {
      "inputs": [
        {
          "internalType": "bool",
          "name": "_state",
          "type": "bool"
        }
      ],
      "name": "setPaused",
      "outputs": [],
      "stateMutability": "nonpayable",
      "type": "function"
    },
    {
      "inputs": [
        {
          "internalType": "bytes32",
          "name": "_merkleRoot",
          "type": "bytes32"
        }
      ],
      "name": "setMerkleRoot",
      "outputs": [],
      "stateMutability": "nonpayable",
      "type": "function"
    },
    {
      "inputs": [
        {
          "internalType": "bool",
          "name": "_state",
          "type": "bool"
        }
      ],
      "name": "setWhitelistMintEnabled",
      "outputs": [],
      "stateMutability": "nonpayable",
      "type": "function"
    },
    {
      "inputs": [],
      "name": "withdraw",
      "outputs": [],
      "stateMutability": "nonpayable",
      "type": "function"
    }
  ],
  "bytecode": "0x608060405260405180602001604052806000815250600c90805190602001906200002b92919062000444565b506040518060400160405280600581526020017f2e6a736f6e000000000000000000000000000000000000000000000000000000815250600d90805190602001906200007992919062000444565b5060066010556001601460006101000a81548160ff0219169083151502179055506000601460016101000a81548160ff0219169083151502179055506000601460026101000a81548160ff021916908315150217905550348015620000dd57600080fd5b50604051620051aa380380620051aa833981810160405281019062000103919062000731565b878781600290805190602001906200011d92919062000444565b5080600390805190602001906200013692919062000444565b50620001476200025260201b60201c565b60008190555050506200016f620001636200025b60201b60201c565b6200026360201b60201c565b600160098190555062000188866200032960201b60201c565b84601281905550620001a0846200034360201b60201c565b620001b1836200035d60201b60201c565b620001c2326200026360201b60201c565b81600f60006101000a81548173ffffffffffffffffffffffffffffffffffffffff021916908373ffffffffffffffffffffffffffffffffffffffff16021790555080601460036101000a81548173ffffffffffffffffffffffffffffffffffffffff021916908373ffffffffffffffffffffffffffffffffffffffff16021790555050505050505050506200093e565b60006001905090565b600033905090565b6000600860009054906101000a900473ffffffffffffffffffffffffffffffffffffffff16905081600860006101000a81548173ffffffffffffffffffffffffffffffffffffffff021916908373ffffffffffffffffffffffffffffffffffffffff1602179055508173ffffffffffffffffffffffffffffffffffffffff168173ffffffffffffffffffffffffffffffffffffffff167f8be0079c531659141344cd1fd0a4f28419497f9722a3daafe3b4186f6b6457e060405160405180910390a35050565b620003396200038960201b60201c565b8060118190555050565b620003536200038960201b60201c565b8060138190555050565b6200036d6200038960201b60201c565b80600e90805190602001906200038592919062000444565b5050565b620003996200025b60201b60201c565b73ffffffffffffffffffffffffffffffffffffffff16620003bf6200041a60201b60201c565b73ffffffffffffffffffffffffffffffffffffffff161462000418576040517f08c379a00000000000000000000000000000000000000000000000000000000081526004016200040f90620008b8565b60405180910390fd5b565b6000600860009054906101000a900473ffffffffffffffffffffffffffffffffffffffff16905090565b828054620004529062000909565b90600052602060002090601f016020900481019282620004765760008555620004c2565b82601f106200049157805160ff1916838001178555620004c2565b82800160010185558215620004c2579182015b82811115620004c1578251825591602001919060010190620004a4565b5b509050620004d19190620004d5565b5090565b5b80821115620004f0576000816000905550600101620004d6565b5090565b6000604051905090565b600080fd5b600080fd5b600080fd5b600080fd5b6000601f19601f8301169050919050565b7f4e487b7100000000000000000000000000000000000000000000000000000000600052604160045260246000fd5b6200055d8262000512565b810181811067ffffffffffffffff821117156200057f576200057e62000523565b5b80604052505050565b600062000594620004f4565b9050620005a2828262000552565b919050565b600067ffffffffffffffff821115620005c557620005c462000523565b5b620005d08262000512565b9050602081019050919050565b60005b83811015620005fd578082015181840152602081019050620005e0565b838111156200060d576000848401525b50505050565b60006200062a6200062484620005a7565b62000588565b9050828152602081018484840111156200064957620006486200050d565b5b62000656848285620005dd565b509392505050565b600082601f83011262000676576200067562000508565b5b81516200068884826020860162000613565b91505092915050565b6000819050919050565b620006a68162000691565b8114620006b257600080fd5b50565b600081519050620006c6816200069b565b92915050565b600073ffffffffffffffffffffffffffffffffffffffff82169050919050565b6000620006f982620006cc565b9050919050565b6200070b81620006ec565b81146200071757600080fd5b50565b6000815190506200072b8162000700565b92915050565b600080600080600080600080610100898b031215620007555762000754620004fe565b5b600089015167ffffffffffffffff81111562000776576200077562000503565b5b620007848b828c016200065e565b985050602089015167ffffffffffffffff811115620007a857620007a762000503565b5b620007b68b828c016200065e565b9750506040620007c98b828c01620006b5565b9650506060620007dc8b828c01620006b5565b9550506080620007ef8b828c01620006b5565b94505060a089015167ffffffffffffffff81111562000813576200081262000503565b5b620008218b828c016200065e565b93505060c0620008348b828c016200071a565b92505060e0620008478b828c016200071a565b9150509295985092959890939650565b600082825260208201905092915050565b7f4f776e61626c653a2063616c6c6572206973206e6f7420746865206f776e6572600082015250565b6000620008a060208362000857565b9150620008ad8262000868565b602082019050919050565b60006020820190508181036000830152620008d38162000891565b9050919050565b7f4e487b7100000000000000000000000000000000000000000000000000000000600052602260045260246000fd5b600060028204905060018216806200092257607f821691505b602082108103620009385762000937620008da565b5b50919050565b61485c806200094e6000396000f3fe6080604052600436106102935760003560e01c806370a082311161015a578063b071401b116100c1578063d5abeb011161007a578063d5abeb01146109b4578063db4bec44146109df578063e0a8085314610a1c578063e985e9c514610a45578063efbd73f414610a82578063f2fde38b14610aab57610293565b8063b071401b146108b0578063b767a098146108d9578063b88d4fde14610902578063c23dc68f1461091e578063c87b56dd1461095b578063d2cab0561461099857610293565b806394354fd01161011357806394354fd0146107ad57806395d89b41146107d857806399a2557a14610803578063a0712d6814610840578063a22cb4651461085c578063a45ba8e71461088557610293565b806370a082311461069f578063715018a6146106dc5780637cb64759146106f35780637ec4a6591461071c5780638462151c146107455780638da5cb5b1461078257610293565b80633ccfd60b116101fe5780635bbb2177116101b75780635bbb2177146105795780635c975abb146105b657806362b99ad4146105e15780636352211e1461060c57806366570777146106495780636caede3d1461067457610293565b80633ccfd60b1461049e57806342842e0e146104b557806344a0d68a146104d15780634fdd43cb146104fa57806351830227146105235780635503a0e81461054e57610293565b806313faede61161025057806313faede6146103af57806316ba10e0146103da57806316c38b3c1461040357806318160ddd1461042c57806323b872dd146104575780632eb4a7ab1461047357610293565b806301ffc9a71461029857806302d05d3f146102d557806306fdde0314610300578063081812fc1461032b578063095ea7b3146103685780630b4231ea14610384575b600080fd5b3480156102a457600080fd5b506102bf60048036038101906102ba91906132a7565b610ad4565b6040516102cc91906132ef565b60405180910390f35b3480156102e157600080fd5b506102ea610b66565b6040516102f7919061334b565b60405180910390f35b34801561030c57600080fd5b50610315610b8c565b60405161032291906133ff565b60405180910390f35b34801561033757600080fd5b50610352600480360381019061034d9190613457565b610c1e565b60405161035f919061334b565b60405180910390f35b610382600480360381019061037d91906134b0565b610c9d565b005b34801561039057600080fd5b50610399610de1565b6040516103a691906134ff565b60405180910390f35b3480156103bb57600080fd5b506103c4610de7565b6040516103d191906134ff565b60405180910390f35b3480156103e657600080fd5b5061040160048036038101906103fc919061364f565b610ded565b005b34801561040f57600080fd5b5061042a600480360381019061042591906136c4565b610e0f565b005b34801561043857600080fd5b50610441610e34565b60405161044e91906134ff565b60405180910390f35b610471600480360381019061046c91906136f1565b610e4b565b005b34801561047f57600080fd5b5061048861116d565b604051610495919061375d565b60405180910390f35b3480156104aa57600080fd5b506104b3611173565b005b6104cf60048036038101906104ca91906136f1565b611303565b005b3480156104dd57600080fd5b506104f860048036038101906104f39190613457565b611323565b005b34801561050657600080fd5b50610521600480360381019061051c919061364f565b611335565b005b34801561052f57600080fd5b50610538611357565b60405161054591906132ef565b60405180910390f35b34801561055a57600080fd5b5061056361136a565b60405161057091906133ff565b60405180910390f35b34801561058557600080fd5b506105a0600480360381019061059b91906137d8565b6113f8565b6040516105ad9190613988565b60405180910390f35b3480156105c257600080fd5b506105cb6114bb565b6040516105d891906132ef565b60405180910390f35b3480156105ed57600080fd5b506105f66114ce565b60405161060391906133ff565b60405180910390f35b34801561061857600080fd5b50610633600480360381019061062e9190613457565b61155c565b604051610640919061334b565b60405180910390f35b34801561065557600080fd5b5061065e61156e565b60405161066b919061334b565b60405180910390f35b34801561068057600080fd5b50610689611594565b60405161069691906132ef565b60405180910390f35b3480156106ab57600080fd5b506106c660048036038101906106c191906139aa565b6115a7565b6040516106d391906134ff565b60405180910390f35b3480156106e857600080fd5b506106f161165f565b005b3480156106ff57600080fd5b5061071a60048036038101906107159190613a03565b611673565b005b34801561072857600080fd5b50610743600480360381019061073e919061364f565b611685565b005b34801561075157600080fd5b5061076c600480360381019061076791906139aa565b6116a7565b6040516107799190613aee565b60405180910390f35b34801561078e57600080fd5b506107976117ea565b6040516107a4919061334b565b60405180910390f35b3480156107b957600080fd5b506107c2611814565b6040516107cf91906134ff565b60405180910390f35b3480156107e457600080fd5b506107ed61181a565b6040516107fa91906133ff565b60405180910390f35b34801561080f57600080fd5b5061082a60048036038101906108259190613b10565b6118ac565b6040516108379190613aee565b60405180910390f35b61085a60048036038101906108559190613457565b611ab8565b005b34801561086857600080fd5b50610883600480360381019061087e9190613b63565b611c18565b005b34801561089157600080fd5b5061089a611d23565b6040516108a791906133ff565b60405180910390f35b3480156108bc57600080fd5b506108d760048036038101906108d29190613457565b611db1565b005b3480156108e557600080fd5b5061090060048036038101906108fb91906136c4565b611dc3565b005b61091c60048036038101906109179190613c44565b611de8565b005b34801561092a57600080fd5b5061094560048036038101906109409190613457565b611e5b565b6040516109529190613d1c565b60405180910390f35b34801561096757600080fd5b50610982600480360381019061097d9190613457565b611ec5565b60405161098f91906133ff565b60405180910390f35b6109b260048036038101906109ad9190613d8d565b61201d565b005b3480156109c057600080fd5b506109c9612331565b6040516109d691906134ff565b60405180910390f35b3480156109eb57600080fd5b50610a066004803603810190610a0191906139aa565b612337565b604051610a1391906132ef565b60405180910390f35b348015610a2857600080fd5b50610a436004803603810190610a3e91906136c4565b612357565b005b348015610a5157600080fd5b50610a6c6004803603810190610a679190613ded565b61237c565b604051610a7991906132ef565b60405180910390f35b348015610a8e57600080fd5b50610aa96004803603810190610aa49190613e2d565b612410565b005b348015610ab757600080fd5b50610ad26004803603810190610acd91906139aa565b6124d0565b005b60006301ffc9a760e01b827bffffffffffffffffffffffffffffffffffffffffffffffffffffffff19161480610b2f57506380ac58cd60e01b827bffffffffffffffffffffffffffffffffffffffffffffffffffffffff1916145b80610b5f5750635b5e139f60e01b827bffffffffffffffffffffffffffffffffffffffffffffffffffffffff1916145b9050919050565b601460039054906101000a900473ffffffffffffffffffffffffffffffffffffffff1681565b606060028054610b9b90613e9c565b80601f0160208091040260200160405190810160405280929190818152602001828054610bc790613e9c565b8015610c145780601f10610be957610100808354040283529160200191610c14565b820191906000526020600020905b815481529060010190602001808311610bf757829003601f168201915b5050505050905090565b6000610c2982612553565b610c5f576040517fcf4700e400000000000000000000000000000000000000000000000000000000815260040160405180910390fd5b6006600083815260200190815260200160002060000160009054906101000a900473ffffffffffffffffffffffffffffffffffffffff169050919050565b6000610ca88261155c565b90508073ffffffffffffffffffffffffffffffffffffffff16610cc96125b2565b73ffffffffffffffffffffffffffffffffffffffff1614610d2c57610cf581610cf06125b2565b61237c565b610d2b576040517fcfb3b94200000000000000000000000000000000000000000000000000000000815260040160405180910390fd5b5b826006600084815260200190815260200160002060000160006101000a81548173ffffffffffffffffffffffffffffffffffffffff021916908373ffffffffffffffffffffffffffffffffffffffff160217905550818373ffffffffffffffffffffffffffffffffffffffff168273ffffffffffffffffffffffffffffffffffffffff167f8c5be1e5ebec7d5bd14f71427d1e84f3dd0314c0f7b2291e5b200ac8c7c3b92560405160405180910390a4505050565b60105481565b60115481565b610df56125ba565b80600d9080519060200190610e0b929190613149565b5050565b610e176125ba565b80601460006101000a81548160ff02191690831515021790555050565b6000610e3e612638565b6001546000540303905090565b6000610e5682612641565b90508373ffffffffffffffffffffffffffffffffffffffff168173ffffffffffffffffffffffffffffffffffffffff1614610ebd576040517fa114810000000000000000000000000000000000000000000000000000000000815260040160405180910390fd5b600080610ec98461270d565b91509150610edf8187610eda6125b2565b612734565b610f2b57610ef486610eef6125b2565b61237c565b610f2a576040517f59c896be00000000000000000000000000000000000000000000000000000000815260040160405180910390fd5b5b600073ffffffffffffffffffffffffffffffffffffffff168573ffffffffffffffffffffffffffffffffffffffff1603610f91576040517fea553b3400000000000000000000000000000000000000000000000000000000815260040160405180910390fd5b610f9e8686866001612778565b8015610fa957600082555b600560008773ffffffffffffffffffffffffffffffffffffffff1673ffffffffffffffffffffffffffffffffffffffff168152602001908152602001600020600081546001900391905081905550600560008673ffffffffffffffffffffffffffffffffffffffff1673ffffffffffffffffffffffffffffffffffffffff16815260200190815260200160002060008154600101919050819055506110778561105388888761277e565b7c0200000000000000000000000000000000000000000000000000000000176127a6565b600460008681526020019081526020016000208190555060007c02000000000000000000000000000000000000000000000000000000008416036110fd57600060018501905060006004600083815260200190815260200160002054036110fb5760005481146110fa578360046000838152602001908152602001600020819055505b5b505b838573ffffffffffffffffffffffffffffffffffffffff168773ffffffffffffffffffffffffffffffffffffffff167fddf252ad1be2c89b69c2b068fc378daa952ba7f163c4a11628f55a4df523b3ef60405160405180910390a461116586868660016127d1565b505050505050565b600a5481565b61117b6125ba565b6111836127d7565b6000600f60009054906101000a900473ffffffffffffffffffffffffffffffffffffffff1673ffffffffffffffffffffffffffffffffffffffff166064601054476111ce9190613efc565b6111d89190613f85565b6040516111e490613fe7565b60006040518083038185875af1925050503d8060008114611221576040519150601f19603f3d011682016040523d82523d6000602084013e611226565b606091505b505090508061123457600080fd5b6000601460039054906101000a900473ffffffffffffffffffffffffffffffffffffffff1673ffffffffffffffffffffffffffffffffffffffff164760405161127c90613fe7565b60006040518083038185875af1925050503d80600081146112b9576040519150601f19603f3d011682016040523d82523d6000602084013e6112be565b606091505b50509050806112cc57600080fd5b6112f7601460039054906101000a900473ffffffffffffffffffffffffffffffffffffffff16612826565b50506113016128ec565b565b61131e83838360405180602001604052806000815250611de8565b505050565b61132b6125ba565b8060118190555050565b61133d6125ba565b80600e9080519060200190611353929190613149565b5050565b601460029054906101000a900460ff1681565b600d805461137790613e9c565b80601f01602080910402602001604051908101604052809291908181526020018280546113a390613e9c565b80156113f05780601f106113c5576101008083540402835291602001916113f0565b820191906000526020600020905b8154815290600101906020018083116113d357829003601f168201915b505050505081565b6060600083839050905060008167ffffffffffffffff81111561141e5761141d613524565b5b60405190808252806020026020018201604052801561145757816020015b6114446131cf565b81526020019060019003908161143c5790505b50905060005b8281146114af5761148686868381811061147a57611479613ffc565b5b90506020020135611e5b565b82828151811061149957611498613ffc565b5b602002602001018190525080600101905061145d565b50809250505092915050565b601460009054906101000a900460ff1681565b600c80546114db90613e9c565b80601f016020809104026020016040519081016040528092919081815260200182805461150790613e9c565b80156115545780601f1061152957610100808354040283529160200191611554565b820191906000526020600020905b81548152906001019060200180831161153757829003601f168201915b505050505081565b600061156782612641565b9050919050565b600f60009054906101000a900473ffffffffffffffffffffffffffffffffffffffff1681565b601460019054906101000a900460ff1681565b60008073ffffffffffffffffffffffffffffffffffffffff168273ffffffffffffffffffffffffffffffffffffffff160361160e576040517f8f4eb60400000000000000000000000000000000000000000000000000000000815260040160405180910390fd5b67ffffffffffffffff600560008473ffffffffffffffffffffffffffffffffffffffff1673ffffffffffffffffffffffffffffffffffffffff16815260200190815260200160002054169050919050565b6116676125ba565b6116716000612826565b565b61167b6125ba565b80600a8190555050565b61168d6125ba565b80600c90805190602001906116a3929190613149565b5050565b606060008060006116b7856115a7565b905060008167ffffffffffffffff8111156116d5576116d4613524565b5b6040519080825280602002602001820160405280156117035781602001602082028036833780820191505090505b50905061170e6131cf565b6000611718612638565b90505b8386146117dc5761172b816128f6565b915081604001516117d157600073ffffffffffffffffffffffffffffffffffffffff16826000015173ffffffffffffffffffffffffffffffffffffffff161461177657816000015194505b8773ffffffffffffffffffffffffffffffffffffffff168573ffffffffffffffffffffffffffffffffffffffff16036117d057808387806001019850815181106117c3576117c2613ffc565b5b6020026020010181815250505b5b80600101905061171b565b508195505050505050919050565b6000600860009054906101000a900473ffffffffffffffffffffffffffffffffffffffff16905090565b60135481565b60606003805461182990613e9c565b80601f016020809104026020016040519081016040528092919081815260200182805461185590613e9c565b80156118a25780601f10611877576101008083540402835291602001916118a2565b820191906000526020600020905b81548152906001019060200180831161188557829003601f168201915b5050505050905090565b60608183106118e7576040517f32c1995a00000000000000000000000000000000000000000000000000000000815260040160405180910390fd5b6000806118f2612921565b90506118fc612638565b85101561190e5761190b612638565b94505b8084111561191a578093505b6000611925876115a7565b905084861015611948576000868603905081811015611942578091505b5061194d565b600090505b60008167ffffffffffffffff81111561196957611968613524565b5b6040519080825280602002602001820160405280156119975781602001602082028036833780820191505090505b509050600082036119ae5780945050505050611ab1565b60006119b988611e5b565b9050600081604001516119ce57816000015190505b60008990505b8881141580156119e45750848714155b15611aa3576119f2816128f6565b92508260400151611a9857600073ffffffffffffffffffffffffffffffffffffffff16836000015173ffffffffffffffffffffffffffffffffffffffff1614611a3d57826000015191505b8a73ffffffffffffffffffffffffffffffffffffffff168273ffffffffffffffffffffffffffffffffffffffff1603611a975780848880600101995081518110611a8a57611a89613ffc565b5b6020026020010181815250505b5b8060010190506119d4565b508583528296505050505050505b9392505050565b80600081118015611acb57506013548111155b611b0a576040517f08c379a0000000000000000000000000000000000000000000000000000000008152600401611b0190614077565b60405180910390fd5b60125481611b16610e34565b611b209190614097565b1115611b61576040517f08c379a0000000000000000000000000000000000000000000000000000000008152600401611b5890614139565b60405180910390fd5b8180601154611b709190613efc565b341015611bb2576040517f08c379a0000000000000000000000000000000000000000000000000000000008152600401611ba9906141a5565b60405180910390fd5b601460009054906101000a900460ff1615611c02576040517f08c379a0000000000000000000000000000000000000000000000000000000008152600401611bf990614211565b60405180910390fd5b611c13611c0d61292a565b84612932565b505050565b8060076000611c256125b2565b73ffffffffffffffffffffffffffffffffffffffff1673ffffffffffffffffffffffffffffffffffffffff16815260200190815260200160002060008473ffffffffffffffffffffffffffffffffffffffff1673ffffffffffffffffffffffffffffffffffffffff16815260200190815260200160002060006101000a81548160ff0219169083151502179055508173ffffffffffffffffffffffffffffffffffffffff16611cd26125b2565b73ffffffffffffffffffffffffffffffffffffffff167f17307eab39ab6107e8899845ad3d59bd9653f200f220920489ca2b5937696c3183604051611d1791906132ef565b60405180910390a35050565b600e8054611d3090613e9c565b80601f0160208091040260200160405190810160405280929190818152602001828054611d5c90613e9c565b8015611da95780601f10611d7e57610100808354040283529160200191611da9565b820191906000526020600020905b815481529060010190602001808311611d8c57829003601f168201915b505050505081565b611db96125ba565b8060138190555050565b611dcb6125ba565b80601460016101000a81548160ff02191690831515021790555050565b611df3848484610e4b565b60008373ffffffffffffffffffffffffffffffffffffffff163b14611e5557611e1e84848484612950565b611e54576040517fd1a57ed600000000000000000000000000000000000000000000000000000000815260040160405180910390fd5b5b50505050565b611e636131cf565b611e6b6131cf565b611e73612638565b831080611e875750611e83612921565b8310155b15611e955780915050611ec0565b611e9e836128f6565b9050806040015115611eb35780915050611ec0565b611ebc83612aa0565b9150505b919050565b6060611ed082612553565b611f0f576040517f08c379a0000000000000000000000000000000000000000000000000000000008152600401611f06906142a3565b60405180910390fd5b60001515601460029054906101000a900460ff16151503611fbc57600e8054611f3790613e9c565b80601f0160208091040260200160405190810160405280929190818152602001828054611f6390613e9c565b8015611fb05780601f10611f8557610100808354040283529160200191611fb0565b820191906000526020600020905b815481529060010190602001808311611f9357829003601f168201915b50505050509050612018565b6000611fc6612ac0565b90506000815111611fe65760405180602001604052806000815250612014565b80611ff084612b52565b600d60405160200161200493929190614393565b6040516020818303038152906040525b9150505b919050565b8260008111801561203057506013548111155b61206f576040517f08c379a000000000000000000000000000000000000000000000000000000000815260040161206690614077565b60405180910390fd5b6012548161207b610e34565b6120859190614097565b11156120c6576040517f08c379a00000000000000000000000000000000000000000000000000000000081526004016120bd90614139565b60405180910390fd5b83806011546120d59190613efc565b341015612117576040517f08c379a000000000000000000000000000000000000000000000000000000000815260040161210e906141a5565b60405180910390fd5b601460019054906101000a900460ff16612166576040517f08c379a000000000000000000000000000000000000000000000000000000000815260040161215d90614436565b60405180910390fd5b600b600061217261292a565b73ffffffffffffffffffffffffffffffffffffffff1673ffffffffffffffffffffffffffffffffffffffff16815260200190815260200160002060009054906101000a900460ff16156121fa576040517f08c379a00000000000000000000000000000000000000000000000000000000081526004016121f1906144a2565b60405180910390fd5b600061220461292a565b604051602001612214919061450a565b60405160208183030381529060405280519060200120905061227a858580806020026020016040519081016040528093929190818152602001838360200280828437600081840152601f19601f82011690508083019250505050505050600a5483612c20565b6122b9576040517f08c379a00000000000000000000000000000000000000000000000000000000081526004016122b090614571565b60405180910390fd5b6001600b60006122c761292a565b73ffffffffffffffffffffffffffffffffffffffff1673ffffffffffffffffffffffffffffffffffffffff16815260200190815260200160002060006101000a81548160ff02191690831515021790555061232961232361292a565b87612932565b505050505050565b60125481565b600b6020528060005260406000206000915054906101000a900460ff1681565b61235f6125ba565b80601460026101000a81548160ff02191690831515021790555050565b6000600760008473ffffffffffffffffffffffffffffffffffffffff1673ffffffffffffffffffffffffffffffffffffffff16815260200190815260200160002060008373ffffffffffffffffffffffffffffffffffffffff1673ffffffffffffffffffffffffffffffffffffffff16815260200190815260200160002060009054906101000a900460ff16905092915050565b8160008111801561242357506013548111155b612462576040517f08c379a000000000000000000000000000000000000000000000000000000000815260040161245990614077565b60405180910390fd5b6012548161246e610e34565b6124789190614097565b11156124b9576040517f08c379a00000000000000000000000000000000000000000000000000000000081526004016124b090614139565b60405180910390fd5b6124c16125ba565b6124cb8284612932565b505050565b6124d86125ba565b600073ffffffffffffffffffffffffffffffffffffffff168173ffffffffffffffffffffffffffffffffffffffff1603612547576040517f08c379a000000000000000000000000000000000000000000000000000000000815260040161253e90614603565b60405180910390fd5b61255081612826565b50565b60008161255e612638565b1115801561256d575060005482105b80156125ab575060007c0100000000000000000000000000000000000000000000000000000000600460008581526020019081526020016000205416145b9050919050565b600033905090565b6125c261292a565b73ffffffffffffffffffffffffffffffffffffffff166125e06117ea565b73ffffffffffffffffffffffffffffffffffffffff1614612636576040517f08c379a000000000000000000000000000000000000000000000000000000000815260040161262d9061466f565b60405180910390fd5b565b60006001905090565b60008082905080612650612638565b116126d6576000548110156126d55760006004600083815260200190815260200160002054905060007c01000000000000000000000000000000000000000000000000000000008216036126d3575b600081036126c957600460008360019003935083815260200190815260200160002054905061269f565b8092505050612708565b505b5b6040517fdf2d9b4200000000000000000000000000000000000000000000000000000000815260040160405180910390fd5b919050565b60008060006006600085815260200190815260200160002090508092508254915050915091565b600073ffffffffffffffffffffffffffffffffffffffff8316925073ffffffffffffffffffffffffffffffffffffffff821691508382148383141790509392505050565b50505050565b60008060e883901c905060e8612795868684612c37565b62ffffff16901b9150509392505050565b600073ffffffffffffffffffffffffffffffffffffffff83169250814260a01b178317905092915050565b50505050565b60026009540361281c576040517f08c379a0000000000000000000000000000000000000000000000000000000008152600401612813906146db565b60405180910390fd5b6002600981905550565b6000600860009054906101000a900473ffffffffffffffffffffffffffffffffffffffff16905081600860006101000a81548173ffffffffffffffffffffffffffffffffffffffff021916908373ffffffffffffffffffffffffffffffffffffffff1602179055508173ffffffffffffffffffffffffffffffffffffffff168173ffffffffffffffffffffffffffffffffffffffff167f8be0079c531659141344cd1fd0a4f28419497f9722a3daafe3b4186f6b6457e060405160405180910390a35050565b6001600981905550565b6128fe6131cf565b61291a6004600084815260200190815260200160002054612c40565b9050919050565b60008054905090565b600033905090565b61294c828260405180602001604052806000815250612cf6565b5050565b60008373ffffffffffffffffffffffffffffffffffffffff1663150b7a026129766125b2565b8786866040518563ffffffff1660e01b81526004016129989493929190614750565b6020604051808303816000875af19250505080156129d457506040513d601f19601f820116820180604052508101906129d191906147b1565b60015b612a4d573d8060008114612a04576040519150601f19603f3d011682016040523d82523d6000602084013e612a09565b606091505b506000815103612a45576040517fd1a57ed600000000000000000000000000000000000000000000000000000000815260040160405180910390fd5b805181602001fd5b63150b7a0260e01b7bffffffffffffffffffffffffffffffffffffffffffffffffffffffff1916817bffffffffffffffffffffffffffffffffffffffffffffffffffffffff191614915050949350505050565b612aa86131cf565b612ab9612ab483612641565b612c40565b9050919050565b6060600c8054612acf90613e9c565b80601f0160208091040260200160405190810160405280929190818152602001828054612afb90613e9c565b8015612b485780601f10612b1d57610100808354040283529160200191612b48565b820191906000526020600020905b815481529060010190602001808311612b2b57829003601f168201915b5050505050905090565b606060006001612b6184612d93565b01905060008167ffffffffffffffff811115612b8057612b7f613524565b5b6040519080825280601f01601f191660200182016040528015612bb25781602001600182028036833780820191505090505b509050600082602001820190505b600115612c15578080600190039150507f3031323334353637383961626364656600000000000000000000000000000000600a86061a8153600a8581612c0957612c08613f56565b5b04945060008503612bc0575b819350505050919050565b600082612c2d8584612ee6565b1490509392505050565b60009392505050565b612c486131cf565b81816000019073ffffffffffffffffffffffffffffffffffffffff16908173ffffffffffffffffffffffffffffffffffffffff168152505060a082901c816020019067ffffffffffffffff16908167ffffffffffffffff168152505060007c01000000000000000000000000000000000000000000000000000000008316141581604001901515908115158152505060e882901c816060019062ffffff16908162ffffff1681525050919050565b612d008383612f3c565b60008373ffffffffffffffffffffffffffffffffffffffff163b14612d8e57600080549050600083820390505b612d406000868380600101945086612950565b612d76576040517fd1a57ed600000000000000000000000000000000000000000000000000000000815260040160405180910390fd5b818110612d2d578160005414612d8b57600080fd5b50505b505050565b600080600090507a184f03e93ff9f4daa797ed6e38ed64bf6a1f0100000000000000008310612df1577a184f03e93ff9f4daa797ed6e38ed64bf6a1f0100000000000000008381612de757612de6613f56565b5b0492506040810190505b6d04ee2d6d415b85acef81000000008310612e2e576d04ee2d6d415b85acef81000000008381612e2457612e23613f56565b5b0492506020810190505b662386f26fc100008310612e5d57662386f26fc100008381612e5357612e52613f56565b5b0492506010810190505b6305f5e1008310612e86576305f5e1008381612e7c57612e7b613f56565b5b0492506008810190505b6127108310612eab576127108381612ea157612ea0613f56565b5b0492506004810190505b60648310612ece5760648381612ec457612ec3613f56565b5b0492506002810190505b600a8310612edd576001810190505b80915050919050565b60008082905060005b8451811015612f3157612f1c82868381518110612f0f57612f0e613ffc565b5b60200260200101516130f7565b91508080612f29906147de565b915050612eef565b508091505092915050565b60008054905060008203612f7c576040517fb562e8dd00000000000000000000000000000000000000000000000000000000815260040160405180910390fd5b612f896000848385612778565b600160406001901b178202600560008573ffffffffffffffffffffffffffffffffffffffff1673ffffffffffffffffffffffffffffffffffffffff1681526020019081526020016000206000828254019250508190555061300083612ff1600086600061277e565b612ffa85613122565b176127a6565b6004600083815260200190815260200160002081905550600080838301905073ffffffffffffffffffffffffffffffffffffffff85169150828260007fddf252ad1be2c89b69c2b068fc378daa952ba7f163c4a11628f55a4df523b3ef600080a4600183015b8181146130a157808360007fddf252ad1be2c89b69c2b068fc378daa952ba7f163c4a11628f55a4df523b3ef600080a4600181019050613066565b50600082036130dc576040517f2e07630000000000000000000000000000000000000000000000000000000000815260040160405180910390fd5b8060008190555050506130f260008483856127d1565b505050565b600081831061310f5761310a8284613132565b61311a565b6131198383613132565b5b905092915050565b60006001821460e11b9050919050565b600082600052816020526040600020905092915050565b82805461315590613e9c565b90600052602060002090601f01602090048101928261317757600085556131be565b82601f1061319057805160ff19168380011785556131be565b828001600101855582156131be579182015b828111156131bd5782518255916020019190600101906131a2565b5b5090506131cb919061321e565b5090565b6040518060800160405280600073ffffffffffffffffffffffffffffffffffffffff168152602001600067ffffffffffffffff168152602001600015158152602001600062ffffff1681525090565b5b8082111561323757600081600090555060010161321f565b5090565b6000604051905090565b600080fd5b600080fd5b60007fffffffff0000000000000000000000000000000000000000000000000000000082169050919050565b6132848161324f565b811461328f57600080fd5b50565b6000813590506132a18161327b565b92915050565b6000602082840312156132bd576132bc613245565b5b60006132cb84828501613292565b91505092915050565b60008115159050919050565b6132e9816132d4565b82525050565b600060208201905061330460008301846132e0565b92915050565b600073ffffffffffffffffffffffffffffffffffffffff82169050919050565b60006133358261330a565b9050919050565b6133458161332a565b82525050565b6000602082019050613360600083018461333c565b92915050565b600081519050919050565b600082825260208201905092915050565b60005b838110156133a0578082015181840152602081019050613385565b838111156133af576000848401525b50505050565b6000601f19601f8301169050919050565b60006133d182613366565b6133db8185613371565b93506133eb818560208601613382565b6133f4816133b5565b840191505092915050565b6000602082019050818103600083015261341981846133c6565b905092915050565b6000819050919050565b61343481613421565b811461343f57600080fd5b50565b6000813590506134518161342b565b92915050565b60006020828403121561346d5761346c613245565b5b600061347b84828501613442565b91505092915050565b61348d8161332a565b811461349857600080fd5b50565b6000813590506134aa81613484565b92915050565b600080604083850312156134c7576134c6613245565b5b60006134d58582860161349b565b92505060206134e685828601613442565b9150509250929050565b6134f981613421565b82525050565b600060208201905061351460008301846134f0565b92915050565b600080fd5b600080fd5b7f4e487b7100000000000000000000000000000000000000000000000000000000600052604160045260246000fd5b61355c826133b5565b810181811067ffffffffffffffff8211171561357b5761357a613524565b5b80604052505050565b600061358e61323b565b905061359a8282613553565b919050565b600067ffffffffffffffff8211156135ba576135b9613524565b5b6135c3826133b5565b9050602081019050919050565b82818337600083830152505050565b60006135f26135ed8461359f565b613584565b90508281526020810184848401111561360e5761360d61351f565b5b6136198482856135d0565b509392505050565b600082601f8301126136365761363561351a565b5b81356136468482602086016135df565b91505092915050565b60006020828403121561366557613664613245565b5b600082013567ffffffffffffffff8111156136835761368261324a565b5b61368f84828501613621565b91505092915050565b6136a1816132d4565b81146136ac57600080fd5b50565b6000813590506136be81613698565b92915050565b6000602082840312156136da576136d9613245565b5b60006136e8848285016136af565b91505092915050565b60008060006060848603121561370a57613709613245565b5b60006137188682870161349b565b93505060206137298682870161349b565b925050604061373a86828701613442565b9150509250925092565b6000819050919050565b61375781613744565b82525050565b6000602082019050613772600083018461374e565b92915050565b600080fd5b600080fd5b60008083601f8401126137985761379761351a565b5b8235905067ffffffffffffffff8111156137b5576137b4613778565b5b6020830191508360208202830111156137d1576137d061377d565b5b9250929050565b600080602083850312156137ef576137ee613245565b5b600083013567ffffffffffffffff81111561380d5761380c61324a565b5b61381985828601613782565b92509250509250929050565b600081519050919050565b600082825260208201905092915050565b6000819050602082019050919050565b61385a8161332a565b82525050565b600067ffffffffffffffff82169050919050565b61387d81613860565b82525050565b61388c816132d4565b82525050565b600062ffffff82169050919050565b6138aa81613892565b82525050565b6080820160008201516138c66000850182613851565b5060208201516138d96020850182613874565b5060408201516138ec6040850182613883565b5060608201516138ff60608501826138a1565b50505050565b600061391183836138b0565b60808301905092915050565b6000602082019050919050565b600061393582613825565b61393f8185613830565b935061394a83613841565b8060005b8381101561397b5781516139628882613905565b975061396d8361391d565b92505060018101905061394e565b5085935050505092915050565b600060208201905081810360008301526139a2818461392a565b905092915050565b6000602082840312156139c0576139bf613245565b5b60006139ce8482850161349b565b91505092915050565b6139e081613744565b81146139eb57600080fd5b50565b6000813590506139fd816139d7565b92915050565b600060208284031215613a1957613a18613245565b5b6000613a27848285016139ee565b91505092915050565b600081519050919050565b600082825260208201905092915050565b6000819050602082019050919050565b613a6581613421565b82525050565b6000613a778383613a5c565b60208301905092915050565b6000602082019050919050565b6000613a9b82613a30565b613aa58185613a3b565b9350613ab083613a4c565b8060005b83811015613ae1578151613ac88882613a6b565b9750613ad383613a83565b925050600181019050613ab4565b5085935050505092915050565b60006020820190508181036000830152613b088184613a90565b905092915050565b600080600060608486031215613b2957613b28613245565b5b6000613b378682870161349b565b9350506020613b4886828701613442565b9250506040613b5986828701613442565b9150509250925092565b60008060408385031215613b7a57613b79613245565b5b6000613b888582860161349b565b9250506020613b99858286016136af565b9150509250929050565b600067ffffffffffffffff821115613bbe57613bbd613524565b5b613bc7826133b5565b9050602081019050919050565b6000613be7613be284613ba3565b613584565b905082815260208101848484011115613c0357613c0261351f565b5b613c0e8482856135d0565b509392505050565b600082601f830112613c2b57613c2a61351a565b5b8135613c3b848260208601613bd4565b91505092915050565b60008060008060808587031215613c5e57613c5d613245565b5b6000613c6c8782880161349b565b9450506020613c7d8782880161349b565b9350506040613c8e87828801613442565b925050606085013567ffffffffffffffff811115613caf57613cae61324a565b5b613cbb87828801613c16565b91505092959194509250565b608082016000820151613cdd6000850182613851565b506020820151613cf06020850182613874565b506040820151613d036040850182613883565b506060820151613d1660608501826138a1565b50505050565b6000608082019050613d316000830184613cc7565b92915050565b60008083601f840112613d4d57613d4c61351a565b5b8235905067ffffffffffffffff811115613d6a57613d69613778565b5b602083019150836020820283011115613d8657613d8561377d565b5b9250929050565b600080600060408486031215613da657613da5613245565b5b6000613db486828701613442565b935050602084013567ffffffffffffffff811115613dd557613dd461324a565b5b613de186828701613d37565b92509250509250925092565b60008060408385031215613e0457613e03613245565b5b6000613e128582860161349b565b9250506020613e238582860161349b565b9150509250929050565b60008060408385031215613e4457613e43613245565b5b6000613e5285828601613442565b9250506020613e638582860161349b565b9150509250929050565b7f4e487b7100000000000000000000000000000000000000000000000000000000600052602260045260246000fd5b60006002820490506001821680613eb457607f821691505b602082108103613ec757613ec6613e6d565b5b50919050565b7f4e487b7100000000000000000000000000000000000000000000000000000000600052601160045260246000fd5b6000613f0782613421565b9150613f1283613421565b9250817fffffffffffffffffffffffffffffffffffffffffffffffffffffffffffffffff0483118215151615613f4b57613f4a613ecd565b5b828202905092915050565b7f4e487b7100000000000000000000000000000000000000000000000000000000600052601260045260246000fd5b6000613f9082613421565b9150613f9b83613421565b925082613fab57613faa613f56565b5b828204905092915050565b600081905092915050565b50565b6000613fd1600083613fb6565b9150613fdc82613fc1565b600082019050919050565b6000613ff282613fc4565b9150819050919050565b7f4e487b7100000000000000000000000000000000000000000000000000000000600052603260045260246000fd5b7f496e76616c6964206d696e7420616d6f756e7421000000000000000000000000600082015250565b6000614061601483613371565b915061406c8261402b565b602082019050919050565b6000602082019050818103600083015261409081614054565b9050919050565b60006140a282613421565b91506140ad83613421565b9250827fffffffffffffffffffffffffffffffffffffffffffffffffffffffffffffffff038211156140e2576140e1613ecd565b5b828201905092915050565b7f4d617820737570706c7920657863656564656421000000000000000000000000600082015250565b6000614123601483613371565b915061412e826140ed565b602082019050919050565b6000602082019050818103600083015261415281614116565b9050919050565b7f496e73756666696369656e742066756e64732100000000000000000000000000600082015250565b600061418f601383613371565b915061419a82614159565b602082019050919050565b600060208201905081810360008301526141be81614182565b9050919050565b7f54686520636f6e74726163742069732070617573656421000000000000000000600082015250565b60006141fb601783613371565b9150614206826141c5565b602082019050919050565b6000602082019050818103600083015261422a816141ee565b9050919050565b7f4552433732314d657461646174613a2055524920717565727920666f72206e6f60008201527f6e6578697374656e7420746f6b656e0000000000000000000000000000000000602082015250565b600061428d602f83613371565b915061429882614231565b604082019050919050565b600060208201905081810360008301526142bc81614280565b9050919050565b600081905092915050565b60006142d982613366565b6142e381856142c3565b93506142f3818560208601613382565b80840191505092915050565b60008190508160005260206000209050919050565b6000815461432181613e9c565b61432b81866142c3565b9450600182166000811461434657600181146143575761438a565b60ff1983168652818601935061438a565b614360856142ff565b60005b8381101561438257815481890152600182019150602081019050614363565b838801955050505b50505092915050565b600061439f82866142ce565b91506143ab82856142ce565b91506143b78284614314565b9150819050949350505050565b7f5468652077686974656c6973742073616c65206973206e6f7420656e61626c6560008201527f6421000000000000000000000000000000000000000000000000000000000000602082015250565b6000614420602283613371565b915061442b826143c4565b604082019050919050565b6000602082019050818103600083015261444f81614413565b9050919050565b7f4164647265737320616c726561647920636c61696d6564210000000000000000600082015250565b600061448c601883613371565b915061449782614456565b602082019050919050565b600060208201905081810360008301526144bb8161447f565b9050919050565b60008160601b9050919050565b60006144da826144c2565b9050919050565b60006144ec826144cf565b9050919050565b6145046144ff8261332a565b6144e1565b82525050565b600061451682846144f3565b60148201915081905092915050565b7f496e76616c69642070726f6f6621000000000000000000000000000000000000600082015250565b600061455b600e83613371565b915061456682614525565b602082019050919050565b6000602082019050818103600083015261458a8161454e565b9050919050565b7f4f776e61626c653a206e6577206f776e657220697320746865207a65726f206160008201527f6464726573730000000000000000000000000000000000000000000000000000602082015250565b60006145ed602683613371565b91506145f882614591565b604082019050919050565b6000602082019050818103600083015261461c816145e0565b9050919050565b7f4f776e61626c653a2063616c6c6572206973206e6f7420746865206f776e6572600082015250565b6000614659602083613371565b915061466482614623565b602082019050919050565b600060208201905081810360008301526146888161464c565b9050919050565b7f5265656e7472616e637947756172643a207265656e7472616e742063616c6c00600082015250565b60006146c5601f83613371565b91506146d08261468f565b602082019050919050565b600060208201905081810360008301526146f4816146b8565b9050919050565b600081519050919050565b600082825260208201905092915050565b6000614722826146fb565b61472c8185614706565b935061473c818560208601613382565b614745816133b5565b840191505092915050565b6000608082019050614765600083018761333c565b614772602083018661333c565b61477f60408301856134f0565b81810360608301526147918184614717565b905095945050505050565b6000815190506147ab8161327b565b92915050565b6000602082840312156147c7576147c6613245565b5b60006147d58482850161479c565b91505092915050565b60006147e982613421565b91507fffffffffffffffffffffffffffffffffffffffffffffffffffffffffffffffff820361481b5761481a613ecd565b5b60018201905091905056fea26469706673582212204ee44b6cca0d6350299faa136b832b3feae210e9211133ffbac449cc8f3b3a3b64736f6c634300080d0033",
  "immutableReferences": {},
  "source": "// SPDX-License-Identifier: MIT\n\npragma solidity >=0.8.9 <0.9.0;\n\nimport 'erc721a/contracts/extensions/ERC721AQueryable.sol';\nimport '@openzeppelin/contracts/access/Ownable.sol';\nimport '@openzeppelin/contracts/utils/cryptography/MerkleProof.sol';\nimport '@openzeppelin/contracts/security/ReentrancyGuard.sol';\nimport '@openzeppelin/contracts/utils/Strings.sol';\n\n// Factory contract that creates the mint pool, to prevent creators of manipulating above contract!\n\ncontract Collection is ERC721AQueryable, Ownable, ReentrancyGuard {\n\n  using Strings for uint256;\n\n  bytes32 public merkleRoot;\n  mapping(address => bool) public whitelistClaimed;\n\n  string public uriPrefix = '';\n  string public uriSuffix = '.json';\n  string public hiddenMetadataUri;\n  address public mintpadFeeAddress;\n  uint256 public mintpadFee = 6;\n  \n  uint256 public cost;\n  uint256 public maxSupply;\n  uint256 public maxMintAmountPerTx;\n\n  bool public paused = true;\n  bool public whitelistMintEnabled = false;\n  bool public revealed = false;\n  address public creator;\n\n  constructor(\n    string memory _tokenName,\n    string memory _tokenSymbol,\n    uint256 _cost,\n    uint256 _maxSupply,\n    uint256 _maxMintAmountPerTx,\n    string memory _hiddenMetadataUri,\n    address _mintpadFeeAddress,\n    address _creator\n  ) ERC721A(_tokenName, _tokenSymbol) {\n    setCost(_cost);\n    maxSupply = _maxSupply;\n    setMaxMintAmountPerTx(_maxMintAmountPerTx);\n    setHiddenMetadataUri(_hiddenMetadataUri);\n    _transferOwnership(tx.origin);\n    mintpadFeeAddress = _mintpadFeeAddress;\n    creator = _creator;\n  }\n\n  modifier mintCompliance(uint256 _mintAmount) {\n    require(_mintAmount > 0 && _mintAmount <= maxMintAmountPerTx, 'Invalid mint amount!');\n    require(totalSupply() + _mintAmount <= maxSupply, 'Max supply exceeded!');\n    _;\n  }\n\n  modifier mintPriceCompliance(uint256 _mintAmount) {\n    require(msg.value >= cost * _mintAmount, 'Insufficient funds!');\n    _;\n  }\n\n  function whitelistMint(uint256 _mintAmount, bytes32[] calldata _merkleProof) public payable mintCompliance(_mintAmount) mintPriceCompliance(_mintAmount) {\n    // Verify whitelist requirements\n    require(whitelistMintEnabled, 'The whitelist sale is not enabled!');\n    require(!whitelistClaimed[_msgSender()], 'Address already claimed!');\n    bytes32 leaf = keccak256(abi.encodePacked(_msgSender()));\n    require(MerkleProof.verify(_merkleProof, merkleRoot, leaf), 'Invalid proof!');\n\n    whitelistClaimed[_msgSender()] = true;\n    _safeMint(_msgSender(), _mintAmount);\n  }\n\n  function mint(uint256 _mintAmount) public payable mintCompliance(_mintAmount) mintPriceCompliance(_mintAmount) {\n    require(!paused, 'The contract is paused!');\n\n    _safeMint(_msgSender(), _mintAmount);\n  }\n  \n  function mintForAddress(uint256 _mintAmount, address _receiver) public mintCompliance(_mintAmount) onlyOwner {\n    _safeMint(_receiver, _mintAmount);\n  }\n\n  function _startTokenId() internal view virtual override returns (uint256) {\n    return 1;\n  }\n\n  function tokenURI(uint256 _tokenId) public view virtual override(ERC721A, IERC721A) returns (string memory) {\n    require(_exists(_tokenId), 'ERC721Metadata: URI query for nonexistent token');\n\n    if (revealed == false) {\n      return hiddenMetadataUri;\n    }\n\n    string memory currentBaseURI = _baseURI();\n    return bytes(currentBaseURI).length > 0\n        ? string(abi.encodePacked(currentBaseURI, _tokenId.toString(), uriSuffix))\n        : '';\n  }\n\n  function setRevealed(bool _state) public onlyOwner {\n    revealed = _state;\n  }\n\n  function setCost(uint256 _cost) public onlyOwner {\n    cost = _cost;\n  }\n\n  function setMaxMintAmountPerTx(uint256 _maxMintAmountPerTx) public onlyOwner {\n    maxMintAmountPerTx = _maxMintAmountPerTx;\n  }\n\n  function setHiddenMetadataUri(string memory _hiddenMetadataUri) public onlyOwner {\n    hiddenMetadataUri = _hiddenMetadataUri;\n  }\n\n  function setUriPrefix(string memory _uriPrefix) public onlyOwner {\n    uriPrefix = _uriPrefix;\n  }\n\n  function setUriSuffix(string memory _uriSuffix) public onlyOwner {\n    uriSuffix = _uriSuffix;\n  }\n\n  function setPaused(bool _state) public onlyOwner {\n    paused = _state;\n  }\n\n  function setMerkleRoot(bytes32 _merkleRoot) public onlyOwner {\n    merkleRoot = _merkleRoot;\n  }\n\n  function setWhitelistMintEnabled(bool _state) public onlyOwner {\n    whitelistMintEnabled = _state;\n  }\n\n  function withdraw() public onlyOwner nonReentrant {\n    // This will pay MintPad DAO 6% of the initial sale.\n    // =============================================================================\n    (bool hs, ) = payable(mintpadFeeAddress).call{value: address(this).balance * mintpadFee / 100}('');\n    require(hs);\n    // =============================================================================\n\n    // This will transfer the remaining contract balance to the project owner.\n    // =============================================================================\n    (bool os, ) = payable(creator).call{value: address(this).balance}('');\n    require(os);\n    // =============================================================================\n    _transferOwnership(creator);\n  }\n\n  function _baseURI() internal view virtual override returns (string memory) {\n    return uriPrefix;\n  }\n}\n\n// Factory contract that creates the mint pool, to prevent creators of manipulating above contract!\n\ncontract CollectionFactory {\n    address payable[] public deployedCollections;\n\n    function createCollection(\n        string memory _tokenName,\n        string memory _tokenSymbol,\n        uint256  _cost,\n        uint256  _maxSupply,\n        uint256  _maxMintAmountPerTx,\n        string memory _hiddenMetadataUri,\n        address _mintpadFeeAddress,\n        address _creator\n    ) public { \n        address newCollection = address(new Collection(_tokenName, _tokenSymbol, _cost, _maxSupply, _maxMintAmountPerTx, _hiddenMetadataUri, _mintpadFeeAddress, _creator));\n        deployedCollections.push(payable(newCollection));\n    }\n\n    function getDeployedCollections() public view returns (address payable[] memory) {\n        return deployedCollections;\n    }\n}",
  "sourcePath": "/Users/kookkik/Documents/mintpad/smart-contracts/contracts/Collection.sol",
  "compiler": {
    "name": "solc",
    "version": "0.8.13+commit.abaa5c0e.Emscripten.clang"
  },
  "schemaVersion": "3.4.11",
  "updatedAt": "2023-01-23T06:39:45.732Z",
  "devdoc": {
    "kind": "dev",
    "methods": {
      "approve(address,uint256)": {
        "details": "Gives permission to `to` to transfer `tokenId` token to another account. The approval is cleared when the token is transferred. Only a single account can be approved at a time, so approving the zero address clears previous approvals. Requirements: - The caller must own the token or be an approved operator. - `tokenId` must exist. Emits an {Approval} event."
      },
      "balanceOf(address)": {
        "details": "Returns the number of tokens in `owner`'s account."
      },
      "explicitOwnershipOf(uint256)": {
        "details": "Returns the `TokenOwnership` struct at `tokenId` without reverting. If the `tokenId` is out of bounds: - `addr = address(0)` - `startTimestamp = 0` - `burned = false` - `extraData = 0` If the `tokenId` is burned: - `addr = <Address of owner before token was burned>` - `startTimestamp = <Timestamp when token was burned>` - `burned = true` - `extraData = <Extra data when token was burned>` Otherwise: - `addr = <Address of owner>` - `startTimestamp = <Timestamp of start of ownership>` - `burned = false` - `extraData = <Extra data at start of ownership>`"
      },
      "explicitOwnershipsOf(uint256[])": {
        "details": "Returns an array of `TokenOwnership` structs at `tokenIds` in order. See {ERC721AQueryable-explicitOwnershipOf}"
      },
      "getApproved(uint256)": {
        "details": "Returns the account approved for `tokenId` token. Requirements: - `tokenId` must exist."
      },
      "isApprovedForAll(address,address)": {
        "details": "Returns if the `operator` is allowed to manage all of the assets of `owner`. See {setApprovalForAll}."
      },
      "name()": {
        "details": "Returns the token collection name."
      },
      "owner()": {
        "details": "Returns the address of the current owner."
      },
      "ownerOf(uint256)": {
        "details": "Returns the owner of the `tokenId` token. Requirements: - `tokenId` must exist."
      },
      "renounceOwnership()": {
        "details": "Leaves the contract without owner. It will not be possible to call `onlyOwner` functions anymore. Can only be called by the current owner. NOTE: Renouncing ownership will leave the contract without an owner, thereby removing any functionality that is only available to the owner."
      },
      "safeTransferFrom(address,address,uint256)": {
        "details": "Equivalent to `safeTransferFrom(from, to, tokenId, '')`."
      },
      "safeTransferFrom(address,address,uint256,bytes)": {
        "details": "Safely transfers `tokenId` token from `from` to `to`. Requirements: - `from` cannot be the zero address. - `to` cannot be the zero address. - `tokenId` token must exist and be owned by `from`. - If the caller is not `from`, it must be approved to move this token by either {approve} or {setApprovalForAll}. - If `to` refers to a smart contract, it must implement {IERC721Receiver-onERC721Received}, which is called upon a safe transfer. Emits a {Transfer} event."
      },
      "setApprovalForAll(address,bool)": {
        "details": "Approve or remove `operator` as an operator for the caller. Operators can call {transferFrom} or {safeTransferFrom} for any token owned by the caller. Requirements: - The `operator` cannot be the caller. Emits an {ApprovalForAll} event."
      },
      "supportsInterface(bytes4)": {
        "details": "Returns true if this contract implements the interface defined by `interfaceId`. See the corresponding [EIP section](https://eips.ethereum.org/EIPS/eip-165#how-interfaces-are-identified) to learn more about how these ids are created. This function call must use less than 30000 gas."
      },
      "symbol()": {
        "details": "Returns the token collection symbol."
      },
      "tokensOfOwner(address)": {
        "details": "Returns an array of token IDs owned by `owner`. This function scans the ownership mapping and is O(`totalSupply`) in complexity. It is meant to be called off-chain. See {ERC721AQueryable-tokensOfOwnerIn} for splitting the scan into multiple smaller scans if the collection is large enough to cause an out-of-gas error (10K collections should be fine)."
      },
      "tokensOfOwnerIn(address,uint256,uint256)": {
        "details": "Returns an array of token IDs owned by `owner`, in the range [`start`, `stop`) (i.e. `start <= tokenId < stop`). This function allows for tokens to be queried if the collection grows too big for a single call of {ERC721AQueryable-tokensOfOwner}. Requirements: - `start < stop`"
      },
      "totalSupply()": {
        "details": "Returns the total number of tokens in existence. Burned tokens will reduce the count. To get the total number of tokens minted, please see {_totalMinted}."
      },
      "transferFrom(address,address,uint256)": {
        "details": "Transfers `tokenId` from `from` to `to`. Requirements: - `from` cannot be the zero address. - `to` cannot be the zero address. - `tokenId` token must be owned by `from`. - If the caller is not `from`, it must be approved to move this token by either {approve} or {setApprovalForAll}. Emits a {Transfer} event."
      },
      "transferOwnership(address)": {
        "details": "Transfers ownership of the contract to a new account (`newOwner`). Can only be called by the current owner."
      }
    },
    "version": 1
  },
  "userdoc": {
    "errors": {
      "ApprovalCallerNotOwnerNorApproved()": [
        {
          "notice": "The caller must own the token or be an approved operator."
        }
      ],
      "ApprovalQueryForNonexistentToken()": [
        {
          "notice": "The token does not exist."
        }
      ],
      "BalanceQueryForZeroAddress()": [
        {
          "notice": "Cannot query the balance for the zero address."
        }
      ],
      "InvalidQueryRange()": [
        {
          "notice": "Invalid query range (`start` >= `stop`)."
        }
      ],
      "MintERC2309QuantityExceedsLimit()": [
        {
          "notice": "The `quantity` minted with ERC2309 exceeds the safety limit."
        }
      ],
      "MintToZeroAddress()": [
        {
          "notice": "Cannot mint to the zero address."
        }
      ],
      "MintZeroQuantity()": [
        {
          "notice": "The quantity of tokens minted must be more than zero."
        }
      ],
      "OwnerQueryForNonexistentToken()": [
        {
          "notice": "The token does not exist."
        }
      ],
      "OwnershipNotInitializedForExtraData()": [
        {
          "notice": "The `extraData` cannot be set on an unintialized ownership slot."
        }
      ],
      "TransferCallerNotOwnerNorApproved()": [
        {
          "notice": "The caller must own the token or be an approved operator."
        }
      ],
      "TransferFromIncorrectOwner()": [
        {
          "notice": "The token must be owned by `from`."
        }
      ],
      "TransferToNonERC721ReceiverImplementer()": [
        {
          "notice": "Cannot safely transfer to a contract that does not implement the ERC721Receiver interface."
        }
      ],
      "TransferToZeroAddress()": [
        {
          "notice": "Cannot transfer to the zero address."
        }
      ],
      "URIQueryForNonexistentToken()": [
        {
          "notice": "The token does not exist."
        }
      ]
    },
    "kind": "user",
    "methods": {},
    "version": 1
  }
}